:100000007DA17C54790178701200708D808C808F76
:10001000808E8074E575F07284F58085F0805003E1
:10002000759000A2D2500375900174D375F00084CE
:100030005003759002A2D24003759003740375F0CB
:1000400004A4F58085F0805003759004A2D250037B
:10005000759005745775F0EEA4F58085F080500317
:10006000759006A2D240037590077580000080FA53
:10007000E4FAFB75F001E9486053ED4C7004FFFEB3
:1000800001CBE9334016C3ED9940117004EC984060
:100090000BC3E833F8E933F905F080E6C3ED994086
:1000A000117004EC98400BECC398FCED99FDC3B3C0
:1000B0008001C3EA33FAEB33FBC3E913F9E813F821
:1000C000D5F0D9EDFFECFEEBFDEAFCC322C3B32271
:00000001FF
