:100003007508007509867B017A00E4FFFE0BBB00CF
:10001300010A0FBF00010EEF640C4E70F0AC02AD8D
:1000230003AE08AF0912007B8E0A8F0BAC02AD033F
:10003300AE08AF0912007B8C0C8D0DAC02AD03AE84
:100043000AAF0B120067E50D2FFFE50C3E850B8011
:08005300850D808F8080FE22E4
:0300000002005BA0
:0C005B00787FE4F6D8FD75810D020003EB
:10006700EFF88DF0A4FFEDC5F0CEA42EFEEC88F0DE
:04007700A42EFE2293
:10007B00BC000BBE0029EF8DF084FFADF022E4CC69
:10008B00F875F008EF2FFFEE33FEEC33FCEE9DEC32
:10009B00984005FCEE9DFE0FD5F0E9E4CEFD22ED78
:1000AB00F8F5F0EE8420D21CFEADF075F008EF2FC2
:1000BB00FFED33FD4007985006D5F0F222C398FDB3
:0500CB000FD5F0EA2250
:00000001FF
