:020000000146B7
:0100030032CA
:05000B00D2B1C2B132C8
:0100130032BA
:01001B0032B2
:10002300C29CC298C29905F0320000E5F060FC2240
:100033000000C3E39A705D220000C3E5999B7054EE
:10004300220000E4F57FC2B7C2B075A89078987912
:100053009975828775830075980075F00074107A1E
:100063006CF28A99112E1135A2B05028D2AF7400C8
:10007300F2757F010000A2B0401A757F0275F0008F
:1000830074D3FBF3759810112E113DA2B050057572
:100093008000019D857FA000019A75F00075A892EC
:1000A300757F03C2B17450F2759840758CEC758AF4
:1000B300EC758DEC758BEC758922D28CD28E7A958A
:1000C3008A99112EC28CC28E1135757F0475F0008A
:1000D3007440F275985074A2FBD28CD28EF3112E19
:1000E300C28CC28E113D757F05A29A50A775F00090
:1000F30075A882757F067450F2759850D28CD28E93
:100103007A978A9974D5FBF3A29950FCA29850F878
:10011300C28CC28EC31135757F07113DC299C29837
:1001230075800175F00075A890757F087490F2755D
:1001330098807A958A99112E1135757F0975F0008B
:100143007488F275989074A2FBF3112E113D757F9C
:100153000AA29A5054D2AF757F0B75F0007480F2E7
:100163007598B074B2FBF300001470FB113D757FFA
:100173000CE5F0703475F00075A800757F0D749070
:10018300F27480F0F5877598907A978A9974D5FB05
:10019300F3A29950FCA29850F81135757F0E113DCA
:1001A300C299C29875800221AF02009775F000755D
:1001B300A892757F0F74D0F27598C07A95D28CD2BD
:1001C3008E8A99112EC28CC28E1135D2AF757F10D3
:1001D30075F00074C0F27598D474A2FBF3D28CD27C
:1001E3008E112EC28CC28E113D757F11A29A40B919
:1001F30075F00075A882757F1274D0F27598D87A5D
:1002030097D28CD28E8A9974D5FBF3A29950FCA213
:100213009850F8C28CC28E1135757F13113DC29967
:0F022300C298757F14A29A4080E294D775800329
:00000001FF
