:040000000200D632F2
:01000B0032C2
:0100130032BA
:01001B0032B2
:0100230032AA
:01002B0032A2
:0D00D6007581071200D2E58260030200333D
:0300E300020033E5
:0500330012003880FE00
:0A0038009000FF74FFF07A017B00D6
:0C004200C3EA940AEB940040030200CCD7
:08004E008A057C007E017F00A1
:0C005600C3EE9400EF9401E433F8604323
:09006200EE2CF530EF3DF531E51F
:04006B00302400F548
:04006F0032E5313411
:0400730000F533E57C
:060077003024FFF534E522
:06007D003134FFF535E50A
:06008300342400F582E5C3
:0A008900353400F583E0F92401F599
:05009300368532828574
:0B0098003383E536F00EBE00B50F020A
:0200A300005605
:0D00A50074FF2CFCE43DFDEC2400F582ED21
:0D00B2003400F583E0FC7D00BCFF05BD00BF
:0300BF00028002BA
:0200C2008A9022
:0500C4000ABA00010B67
:0300C900020042F0
:0300CC007580013B
:0200CF0080FEB1
:0100D100220C
:0300D20075820034
:0100D5002208
:00000001FF
